{
  "_format": "hh-sol-artifact-1",
  "contractName": "TraderTokenFactory",
  "sourceName": "contracts/FactoryContract.sol",
  "abi": [
    {
      "inputs": [],
      "stateMutability": "nonpayable",
      "type": "constructor"
    },
    {
      "anonymous": false,
      "inputs": [
        {
          "indexed": true,
          "internalType": "address",
          "name": "trader",
          "type": "address"
        },
        {
          "indexed": false,
          "internalType": "address",
          "name": "customer",
          "type": "address"
        }
      ],
      "name": "TokenMinted",
      "type": "event"
    },
    {
      "anonymous": false,
      "inputs": [
        {
          "indexed": true,
          "internalType": "address",
          "name": "trader",
          "type": "address"
        },
        {
          "indexed": false,
          "internalType": "address",
          "name": "tokenAddress",
          "type": "address"
        }
      ],
      "name": "TraderTokenCreated",
      "type": "event"
    },
    {
      "inputs": [
        {
          "internalType": "address",
          "name": "trader",
          "type": "address"
        }
      ],
      "name": "checkTrader",
      "outputs": [
        {
          "internalType": "bool",
          "name": "",
          "type": "bool"
        }
      ],
      "stateMutability": "view",
      "type": "function"
    },
    {
      "inputs": [
        {
          "internalType": "string",
          "name": "contractName",
          "type": "string"
        },
        {
          "internalType": "string",
          "name": "contractSymbol",
          "type": "string"
        }
      ],
      "name": "createTraderToken",
      "outputs": [
        {
          "internalType": "address",
          "name": "",
          "type": "address"
        }
      ],
      "stateMutability": "nonpayable",
      "type": "function"
    },
    {
      "inputs": [
        {
          "internalType": "address",
          "name": "",
          "type": "address"
        },
        {
          "internalType": "uint256",
          "name": "",
          "type": "uint256"
        }
      ],
      "name": "customerTraders",
      "outputs": [
        {
          "internalType": "address",
          "name": "",
          "type": "address"
        }
      ],
      "stateMutability": "view",
      "type": "function"
    },
    {
      "inputs": [
        {
          "internalType": "address",
          "name": "customer",
          "type": "address"
        }
      ],
      "name": "getCustomerTraders",
      "outputs": [
        {
          "internalType": "address[]",
          "name": "",
          "type": "address[]"
        }
      ],
      "stateMutability": "view",
      "type": "function"
    },
    {
      "inputs": [
        {
          "internalType": "address",
          "name": "trader",
          "type": "address"
        }
      ],
      "name": "getTraderContract",
      "outputs": [
        {
          "internalType": "address",
          "name": "",
          "type": "address"
        }
      ],
      "stateMutability": "view",
      "type": "function"
    },
    {
      "inputs": [
        {
          "internalType": "address",
          "name": "user",
          "type": "address"
        }
      ],
      "name": "getUserTraders",
      "outputs": [
        {
          "internalType": "address[]",
          "name": "",
          "type": "address[]"
        }
      ],
      "stateMutability": "view",
      "type": "function"
    },
    {
      "inputs": [
        {
          "internalType": "address",
          "name": "trader",
          "type": "address"
        },
        {
          "internalType": "address",
          "name": "customer",
          "type": "address"
        },
        {
          "internalType": "uint256",
          "name": "keyFee",
          "type": "uint256"
        }
      ],
      "name": "mintTokenForCustomer",
      "outputs": [],
      "stateMutability": "payable",
      "type": "function"
    },
    {
      "inputs": [],
      "name": "owner",
      "outputs": [
        {
          "internalType": "address",
          "name": "",
          "type": "address"
        }
      ],
      "stateMutability": "view",
      "type": "function"
    },
    {
      "inputs": [
        {
          "internalType": "address",
          "name": "",
          "type": "address"
        }
      ],
      "name": "traderContracts",
      "outputs": [
        {
          "internalType": "address",
          "name": "",
          "type": "address"
        }
      ],
      "stateMutability": "view",
      "type": "function"
    },
    {
      "inputs": [
        {
          "internalType": "address",
          "name": "",
          "type": "address"
        },
        {
          "internalType": "uint256",
          "name": "",
          "type": "uint256"
        }
      ],
      "name": "userTraders",
      "outputs": [
        {
          "internalType": "address",
          "name": "",
          "type": "address"
        }
      ],
      "stateMutability": "view",
      "type": "function"
    },
    {
      "inputs": [],
      "name": "withdrawFunds",
      "outputs": [],
      "stateMutability": "nonpayable",
      "type": "function"
    }
  ],
  "bytecode": "0x608060405234801561001057600080fd5b50336000806101000a81548173ffffffffffffffffffffffffffffffffffffffff021916908373ffffffffffffffffffffffffffffffffffffffff160217905550614bd5806100606000396000f3fe608060405260043610620000aa5760003560e01c80638da5cb5b116200006d5780638da5cb5b14620001b5578063b157620914620001e5578063c5dd7b0e1462000229578063caecc2ba146200026d578063d1a1f82c14620002b1578063db18436f14620002f557620000aa565b80632224068114620000af57806324600fc314620000f357806335619c0f146200010d5780634794549414620001515780638c8d2f291462000195575b600080fd5b348015620000bc57600080fd5b50620000db6004803603810190620000d5919062000d92565b62000339565b604051620000ea919062000dd5565b60405180910390f35b3480156200010057600080fd5b506200010b6200036c565b005b3480156200011a57600080fd5b5062000139600480360381019062000133919062000d92565b620004d5565b60405162000148919062000ec0565b60405180910390f35b3480156200015e57600080fd5b506200017d600480360381019062000177919062000d92565b620005a4565b6040516200018c919062000dd5565b60405180910390f35b620001b36004803603810190620001ad919062000f1f565b6200060d565b005b348015620001c257600080fd5b50620001cd6200084b565b604051620001dc919062000dd5565b60405180910390f35b348015620001f257600080fd5b506200021160048036038101906200020b919062000f7b565b6200086f565b60405162000220919062000dd5565b60405180910390f35b3480156200023657600080fd5b506200025560048036038101906200024f919062000d92565b620008be565b60405162000264919062000ec0565b60405180910390f35b3480156200027a57600080fd5b5062000299600480360381019062000293919062000d92565b6200098d565b604051620002a8919062000fdf565b60405180910390f35b348015620002be57600080fd5b50620002dd6004803603810190620002d7919062000f7b565b62000a2b565b604051620002ec919062000dd5565b60405180910390f35b3480156200030257600080fd5b506200032160048036038101906200031b91906200115e565b62000a7a565b60405162000330919062000dd5565b60405180910390f35b60016020528060005260406000206000915054906101000a900473ffffffffffffffffffffffffffffffffffffffff1681565b60008054906101000a900473ffffffffffffffffffffffffffffffffffffffff1673ffffffffffffffffffffffffffffffffffffffff163373ffffffffffffffffffffffffffffffffffffffff1614620003fd576040517f08c379a0000000000000000000000000000000000000000000000000000000008152600401620003f4906200126a565b60405180910390fd5b60004790506000811162000448576040517f08c379a00000000000000000000000000000000000000000000000000000000081526004016200043f9062001302565b60405180910390fd5b60006064605a836200045b919062001353565b620004679190620013cd565b905060008054906101000a900473ffffffffffffffffffffffffffffffffffffffff1673ffffffffffffffffffffffffffffffffffffffff166108fc829081150290604051600060405180830381858888f19350505050158015620004d0573d6000803e3d6000fd5b505050565b6060600360008373ffffffffffffffffffffffffffffffffffffffff1673ffffffffffffffffffffffffffffffffffffffff1681526020019081526020016000208054806020026020016040519081016040528092919081815260200182805480156200059857602002820191906000526020600020905b8160009054906101000a900473ffffffffffffffffffffffffffffffffffffffff1673ffffffffffffffffffffffffffffffffffffffff16815260200190600101908083116200054d575b50505050509050919050565b6000600160008373ffffffffffffffffffffffffffffffffffffffff1673ffffffffffffffffffffffffffffffffffffffff16815260200190815260200160002060009054906101000a900473ffffffffffffffffffffffffffffffffffffffff169050919050565b6000600160008573ffffffffffffffffffffffffffffffffffffffff1673ffffffffffffffffffffffffffffffffffffffff16815260200190815260200160002060009054906101000a900473ffffffffffffffffffffffffffffffffffffffff169050600073ffffffffffffffffffffffffffffffffffffffff168173ffffffffffffffffffffffffffffffffffffffff1603620006e3576040517f08c379a0000000000000000000000000000000000000000000000000000000008152600401620006da9062001455565b60405180910390fd5b8373ffffffffffffffffffffffffffffffffffffffff167f43018e864c5a6b3eb8c52ae659d472aee4c0493bd52afaa77df55acb19865ced846040516200072b919062000dd5565b60405180910390a28073ffffffffffffffffffffffffffffffffffffffff166379c650683485856040518463ffffffff1660e01b81526004016200077192919062001488565b6000604051808303818588803b1580156200078b57600080fd5b505af1158015620007a0573d6000803e3d6000fd5b5050505050600360008473ffffffffffffffffffffffffffffffffffffffff1673ffffffffffffffffffffffffffffffffffffffff168152602001908152602001600020849080600181540180825580915050600190039060005260206000200160009091909190916101000a81548173ffffffffffffffffffffffffffffffffffffffff021916908373ffffffffffffffffffffffffffffffffffffffff16021790555050505050565b60008054906101000a900473ffffffffffffffffffffffffffffffffffffffff1681565b600260205281600052604060002081815481106200088c57600080fd5b906000526020600020016000915091509054906101000a900473ffffffffffffffffffffffffffffffffffffffff1681565b6060600260008373ffffffffffffffffffffffffffffffffffffffff1673ffffffffffffffffffffffffffffffffffffffff1681526020019081526020016000208054806020026020016040519081016040528092919081815260200182805480156200098157602002820191906000526020600020905b8160009054906101000a900473ffffffffffffffffffffffffffffffffffffffff1673ffffffffffffffffffffffffffffffffffffffff168152602001906001019080831162000936575b50505050509050919050565b600080600160008473ffffffffffffffffffffffffffffffffffffffff1673ffffffffffffffffffffffffffffffffffffffff16815260200190815260200160002060009054906101000a900473ffffffffffffffffffffffffffffffffffffffff169050600073ffffffffffffffffffffffffffffffffffffffff168173ffffffffffffffffffffffffffffffffffffffff161415915050919050565b6003602052816000526040600020818154811062000a4857600080fd5b906000526020600020016000915091509054906101000a900473ffffffffffffffffffffffffffffffffffffffff1681565b60008073ffffffffffffffffffffffffffffffffffffffff16600160003373ffffffffffffffffffffffffffffffffffffffff1673ffffffffffffffffffffffffffffffffffffffff16815260200190815260200160002060009054906101000a900473ffffffffffffffffffffffffffffffffffffffff1673ffffffffffffffffffffffffffffffffffffffff161462000b4c576040517f08c379a000000000000000000000000000000000000000000000000000000000815260040162000b439062001505565b60405180910390fd5b600083833360405162000b5f9062000d0b565b62000b6d939291906200159f565b604051809103906000f08015801562000b8a573d6000803e3d6000fd5b509050600081905080600160003373ffffffffffffffffffffffffffffffffffffffff1673ffffffffffffffffffffffffffffffffffffffff16815260200190815260200160002060006101000a81548173ffffffffffffffffffffffffffffffffffffffff021916908373ffffffffffffffffffffffffffffffffffffffff160217905550600260003373ffffffffffffffffffffffffffffffffffffffff1673ffffffffffffffffffffffffffffffffffffffff168152602001908152602001600020819080600181540180825580915050600190039060005260206000200160009091909190916101000a81548173ffffffffffffffffffffffffffffffffffffffff021916908373ffffffffffffffffffffffffffffffffffffffff1602179055503373ffffffffffffffffffffffffffffffffffffffff167fb2cd57e71af82810c238dd4824953d434014002549a48b9049ac3f3fdce551518260405162000cf8919062000dd5565b60405180910390a2809250505092915050565b6135b580620015eb83390190565b6000604051905090565b600080fd5b600080fd5b600073ffffffffffffffffffffffffffffffffffffffff82169050919050565b600062000d5a8262000d2d565b9050919050565b62000d6c8162000d4d565b811462000d7857600080fd5b50565b60008135905062000d8c8162000d61565b92915050565b60006020828403121562000dab5762000daa62000d23565b5b600062000dbb8482850162000d7b565b91505092915050565b62000dcf8162000d4d565b82525050565b600060208201905062000dec600083018462000dc4565b92915050565b600081519050919050565b600082825260208201905092915050565b6000819050602082019050919050565b62000e298162000d4d565b82525050565b600062000e3d838362000e1e565b60208301905092915050565b6000602082019050919050565b600062000e638262000df2565b62000e6f818562000dfd565b935062000e7c8362000e0e565b8060005b8381101562000eb357815162000e97888262000e2f565b975062000ea48362000e49565b92505060018101905062000e80565b5085935050505092915050565b6000602082019050818103600083015262000edc818462000e56565b905092915050565b6000819050919050565b62000ef98162000ee4565b811462000f0557600080fd5b50565b60008135905062000f198162000eee565b92915050565b60008060006060848603121562000f3b5762000f3a62000d23565b5b600062000f4b8682870162000d7b565b935050602062000f5e8682870162000d7b565b925050604062000f718682870162000f08565b9150509250925092565b6000806040838503121562000f955762000f9462000d23565b5b600062000fa58582860162000d7b565b925050602062000fb88582860162000f08565b9150509250929050565b60008115159050919050565b62000fd98162000fc2565b82525050565b600060208201905062000ff6600083018462000fce565b92915050565b600080fd5b600080fd5b6000601f19601f8301169050919050565b7f4e487b7100000000000000000000000000000000000000000000000000000000600052604160045260246000fd5b620010518262001006565b810181811067ffffffffffffffff8211171562001073576200107262001017565b5b80604052505050565b60006200108862000d19565b905062001096828262001046565b919050565b600067ffffffffffffffff821115620010b957620010b862001017565b5b620010c48262001006565b9050602081019050919050565b82818337600083830152505050565b6000620010f7620010f1846200109b565b6200107c565b90508281526020810184848401111562001116576200111562001001565b5b62001123848285620010d1565b509392505050565b600082601f83011262001143576200114262000ffc565b5b813562001155848260208601620010e0565b91505092915050565b6000806040838503121562001178576200117762000d23565b5b600083013567ffffffffffffffff81111562001199576200119862000d28565b5b620011a7858286016200112b565b925050602083013567ffffffffffffffff811115620011cb57620011ca62000d28565b5b620011d9858286016200112b565b9150509250929050565b600082825260208201905092915050565b7f4f6e6c7920746865206f776e65722063616e20706572666f726d20746869732060008201527f616374696f6e0000000000000000000000000000000000000000000000000000602082015250565b600062001252602683620011e3565b91506200125f82620011f4565b604082019050919050565b60006020820190508181036000830152620012858162001243565b9050919050565b7f436f6e747261637420686173206e6f2062616c616e636520746f20776974686460008201527f7261770000000000000000000000000000000000000000000000000000000000602082015250565b6000620012ea602383620011e3565b9150620012f7826200128c565b604082019050919050565b600060208201905081810360008301526200131d81620012db565b9050919050565b7f4e487b7100000000000000000000000000000000000000000000000000000000600052601160045260246000fd5b6000620013608262000ee4565b91506200136d8362000ee4565b92508282026200137d8162000ee4565b9150828204841483151762001397576200139662001324565b5b5092915050565b7f4e487b7100000000000000000000000000000000000000000000000000000000600052601260045260246000fd5b6000620013da8262000ee4565b9150620013e78362000ee4565b925082620013fa57620013f96200139e565b5b828204905092915050565b7f54726164657220636f6e747261637420646f6573206e6f742065786973740000600082015250565b60006200143d601e83620011e3565b91506200144a8262001405565b602082019050919050565b6000602082019050818103600083015262001470816200142e565b9050919050565b620014828162000ee4565b82525050565b60006040820190506200149f600083018562000dc4565b620014ae602083018462001477565b9392505050565b7f54726164657220636f6e747261637420616c7265616479206578697374730000600082015250565b6000620014ed601e83620011e3565b9150620014fa82620014b5565b602082019050919050565b600060208201905081810360008301526200152081620014de565b9050919050565b600081519050919050565b60005b838110156200155257808201518184015260208101905062001535565b60008484015250505050565b60006200156b8262001527565b620015778185620011e3565b93506200158981856020860162001532565b620015948162001006565b840191505092915050565b60006060820190508181036000830152620015bb81866200155e565b90508181036020830152620015d181856200155e565b9050620015e2604083018462000dc4565b94935050505056fe60806040523480156200001157600080fd5b50604051620035b5380380620035b583398181016040528101906200003791906200034e565b828281600090816200004a919062000633565b5080600190816200005c919062000633565b5050506200007f620000736200008860201b60201c565b6200009060201b60201c565b5050506200071a565b600033905090565b6000600660009054906101000a900473ffffffffffffffffffffffffffffffffffffffff16905081600660006101000a81548173ffffffffffffffffffffffffffffffffffffffff021916908373ffffffffffffffffffffffffffffffffffffffff1602179055508173ffffffffffffffffffffffffffffffffffffffff168173ffffffffffffffffffffffffffffffffffffffff167f8be0079c531659141344cd1fd0a4f28419497f9722a3daafe3b4186f6b6457e060405160405180910390a35050565b6000604051905090565b600080fd5b600080fd5b600080fd5b600080fd5b6000601f19601f8301169050919050565b7f4e487b7100000000000000000000000000000000000000000000000000000000600052604160045260246000fd5b620001bf8262000174565b810181811067ffffffffffffffff82111715620001e157620001e062000185565b5b80604052505050565b6000620001f662000156565b9050620002048282620001b4565b919050565b600067ffffffffffffffff82111562000227576200022662000185565b5b620002328262000174565b9050602081019050919050565b60005b838110156200025f57808201518184015260208101905062000242565b60008484015250505050565b6000620002826200027c8462000209565b620001ea565b905082815260208101848484011115620002a157620002a06200016f565b5b620002ae8482856200023f565b509392505050565b600082601f830112620002ce57620002cd6200016a565b5b8151620002e08482602086016200026b565b91505092915050565b600073ffffffffffffffffffffffffffffffffffffffff82169050919050565b60006200031682620002e9565b9050919050565b620003288162000309565b81146200033457600080fd5b50565b60008151905062000348816200031d565b92915050565b6000806000606084860312156200036a576200036962000160565b5b600084015167ffffffffffffffff8111156200038b576200038a62000165565b5b6200039986828701620002b6565b935050602084015167ffffffffffffffff811115620003bd57620003bc62000165565b5b620003cb86828701620002b6565b9250506040620003de8682870162000337565b9150509250925092565b600081519050919050565b7f4e487b7100000000000000000000000000000000000000000000000000000000600052602260045260246000fd5b600060028204905060018216806200043b57607f821691505b602082108103620004515762000450620003f3565b5b50919050565b60008190508160005260206000209050919050565b60006020601f8301049050919050565b600082821b905092915050565b600060088302620004bb7fffffffffffffffffffffffffffffffffffffffffffffffffffffffffffffffff826200047c565b620004c786836200047c565b95508019841693508086168417925050509392505050565b6000819050919050565b6000819050919050565b6000620005146200050e6200050884620004df565b620004e9565b620004df565b9050919050565b6000819050919050565b6200053083620004f3565b620005486200053f826200051b565b84845462000489565b825550505050565b600090565b6200055f62000550565b6200056c81848462000525565b505050565b5b8181101562000594576200058860008262000555565b60018101905062000572565b5050565b601f821115620005e357620005ad8162000457565b620005b8846200046c565b81016020851015620005c8578190505b620005e0620005d7856200046c565b83018262000571565b50505b505050565b600082821c905092915050565b60006200060860001984600802620005e8565b1980831691505092915050565b6000620006238383620005f5565b9150826002028217905092915050565b6200063e82620003e8565b67ffffffffffffffff8111156200065a576200065962000185565b5b62000666825462000422565b6200067382828562000598565b600060209050601f831160018114620006ab576000841562000696578287015190505b620006a2858262000615565b86555062000712565b601f198416620006bb8662000457565b60005b82811015620006e557848901518255600182019150602085019450602081019050620006be565b8683101562000705578489015162000701601f891682620005f5565b8355505b6001600288020188555050505b505050505050565b612e8b806200072a6000396000f3fe60806040526004361061011f5760003560e01c806379c65068116100a0578063b88d4fde11610064578063b88d4fde146103c6578063c87b56dd146103ef578063e985e9c51461042c578063f2fde38b14610469578063fddcb5ea146104925761011f565b806379c65068146102ec5780637ef758d4146103085780638da5cb5b1461034757806395d89b4114610372578063a22cb4651461039d5761011f565b806342842e0e116100e757806342842e0e1461021b5780635fd8c710146102445780636352211e1461025b57806370a0823114610298578063715018a6146102d55761011f565b806301ffc9a71461012457806306fdde0314610161578063081812fc1461018c578063095ea7b3146101c957806323b872dd146101f2575b600080fd5b34801561013057600080fd5b5061014b60048036038101906101469190611f07565b6104cf565b6040516101589190611f4f565b60405180910390f35b34801561016d57600080fd5b506101766105b1565b6040516101839190611ffa565b60405180910390f35b34801561019857600080fd5b506101b360048036038101906101ae9190612052565b610643565b6040516101c091906120c0565b60405180910390f35b3480156101d557600080fd5b506101f060048036038101906101eb9190612107565b610689565b005b3480156101fe57600080fd5b5061021960048036038101906102149190612147565b6107a0565b005b34801561022757600080fd5b50610242600480360381019061023d9190612147565b610800565b005b34801561025057600080fd5b50610259610820565b005b34801561026757600080fd5b50610282600480360381019061027d9190612052565b610878565b60405161028f91906120c0565b60405180910390f35b3480156102a457600080fd5b506102bf60048036038101906102ba919061219a565b6108fe565b6040516102cc91906121d6565b60405180910390f35b3480156102e157600080fd5b506102ea6109b5565b005b61030660048036038101906103019190612107565b6109c9565b005b34801561031457600080fd5b5061032f600480360381019061032a9190612052565b610b44565b60405161033e939291906121f1565b60405180910390f35b34801561035357600080fd5b5061035c610b9e565b60405161036991906120c0565b60405180910390f35b34801561037e57600080fd5b50610387610bc8565b6040516103949190611ffa565b60405180910390f35b3480156103a957600080fd5b506103c460048036038101906103bf9190612254565b610c5a565b005b3480156103d257600080fd5b506103ed60048036038101906103e891906123c9565b610c70565b005b3480156103fb57600080fd5b5061041660048036038101906104119190612052565b610cd2565b6040516104239190611ffa565b60405180910390f35b34801561043857600080fd5b50610453600480360381019061044e919061244c565b610d3a565b6040516104609190611f4f565b60405180910390f35b34801561047557600080fd5b50610490600480360381019061048b919061219a565b610dce565b005b34801561049e57600080fd5b506104b960048036038101906104b4919061219a565b610e51565b6040516104c691906121d6565b60405180910390f35b60007f80ac58cd000000000000000000000000000000000000000000000000000000007bffffffffffffffffffffffffffffffffffffffffffffffffffffffff1916827bffffffffffffffffffffffffffffffffffffffffffffffffffffffff1916148061059a57507f5b5e139f000000000000000000000000000000000000000000000000000000007bffffffffffffffffffffffffffffffffffffffffffffffffffffffff1916827bffffffffffffffffffffffffffffffffffffffffffffffffffffffff1916145b806105aa57506105a982610e69565b5b9050919050565b6060600080546105c0906124bb565b80601f01602080910402602001604051908101604052809291908181526020018280546105ec906124bb565b80156106395780601f1061060e57610100808354040283529160200191610639565b820191906000526020600020905b81548152906001019060200180831161061c57829003601f168201915b5050505050905090565b600061064e82610ed3565b6004600083815260200190815260200160002060009054906101000a900473ffffffffffffffffffffffffffffffffffffffff169050919050565b600061069482610878565b90508073ffffffffffffffffffffffffffffffffffffffff168373ffffffffffffffffffffffffffffffffffffffff1603610704576040517f08c379a00000000000000000000000000000000000000000000000000000000081526004016106fb9061255e565b60405180910390fd5b8073ffffffffffffffffffffffffffffffffffffffff16610723610f1e565b73ffffffffffffffffffffffffffffffffffffffff16148061075257506107518161074c610f1e565b610d3a565b5b610791576040517f08c379a0000000000000000000000000000000000000000000000000000000008152600401610788906125f0565b60405180910390fd5b61079b8383610f26565b505050565b6107b16107ab610f1e565b82610fdf565b6107f0576040517f08c379a00000000000000000000000000000000000000000000000000000000081526004016107e790612682565b60405180910390fd5b6107fb838383611074565b505050565b61081b83838360405180602001604052806000815250610c70565b505050565b61082861136d565b610830610b9e565b73ffffffffffffffffffffffffffffffffffffffff166108fc479081150290604051600060405180830381858888f19350505050158015610875573d6000803e3d6000fd5b50565b600080610884836113eb565b9050600073ffffffffffffffffffffffffffffffffffffffff168173ffffffffffffffffffffffffffffffffffffffff16036108f5576040517f08c379a00000000000000000000000000000000000000000000000000000000081526004016108ec906126ee565b60405180910390fd5b80915050919050565b60008073ffffffffffffffffffffffffffffffffffffffff168273ffffffffffffffffffffffffffffffffffffffff160361096e576040517f08c379a000000000000000000000000000000000000000000000000000000000815260040161096590612780565b60405180910390fd5b600360008373ffffffffffffffffffffffffffffffffffffffff1673ffffffffffffffffffffffffffffffffffffffff168152602001908152602001600020549050919050565b6109bd61136d565b6109c76000611428565b565b80341015610a0c576040517f08c379a0000000000000000000000000000000000000000000000000000000008152600401610a03906127ec565b60405180910390fd5b600060076000815480929190610a219061283b565b919050559050610a3183826114ee565b600860008473ffffffffffffffffffffffffffffffffffffffff1673ffffffffffffffffffffffffffffffffffffffff1681526020019081526020016000206000815480929190610a819061283b565b9190505550600960405180606001604052808573ffffffffffffffffffffffffffffffffffffffff16815260200183815260200134815250908060018154018082558091505060019003906000526020600020906003020160009091909190915060008201518160000160006101000a81548173ffffffffffffffffffffffffffffffffffffffff021916908373ffffffffffffffffffffffffffffffffffffffff16021790555060208201518160010155604082015181600201555050505050565b60098181548110610b5457600080fd5b90600052602060002090600302016000915090508060000160009054906101000a900473ffffffffffffffffffffffffffffffffffffffff16908060010154908060020154905083565b6000600660009054906101000a900473ffffffffffffffffffffffffffffffffffffffff16905090565b606060018054610bd7906124bb565b80601f0160208091040260200160405190810160405280929190818152602001828054610c03906124bb565b8015610c505780601f10610c2557610100808354040283529160200191610c50565b820191906000526020600020905b815481529060010190602001808311610c3357829003601f168201915b5050505050905090565b610c6c610c65610f1e565b838361150c565b5050565b610c81610c7b610f1e565b83610fdf565b610cc0576040517f08c379a0000000000000000000000000000000000000000000000000000000008152600401610cb790612682565b60405180910390fd5b610ccc84848484611678565b50505050565b6060610cdd82610ed3565b6000610ce76116d4565b90506000815111610d075760405180602001604052806000815250610d32565b80610d11846116eb565b604051602001610d229291906128bf565b6040516020818303038152906040525b915050919050565b6000600560008473ffffffffffffffffffffffffffffffffffffffff1673ffffffffffffffffffffffffffffffffffffffff16815260200190815260200160002060008373ffffffffffffffffffffffffffffffffffffffff1673ffffffffffffffffffffffffffffffffffffffff16815260200190815260200160002060009054906101000a900460ff16905092915050565b610dd661136d565b600073ffffffffffffffffffffffffffffffffffffffff168173ffffffffffffffffffffffffffffffffffffffff1603610e45576040517f08c379a0000000000000000000000000000000000000000000000000000000008152600401610e3c90612955565b60405180910390fd5b610e4e81611428565b50565b60086020528060005260406000206000915090505481565b60007f01ffc9a7000000000000000000000000000000000000000000000000000000007bffffffffffffffffffffffffffffffffffffffffffffffffffffffff1916827bffffffffffffffffffffffffffffffffffffffffffffffffffffffff1916149050919050565b610edc816117b9565b610f1b576040517f08c379a0000000000000000000000000000000000000000000000000000000008152600401610f12906126ee565b60405180910390fd5b50565b600033905090565b816004600083815260200190815260200160002060006101000a81548173ffffffffffffffffffffffffffffffffffffffff021916908373ffffffffffffffffffffffffffffffffffffffff160217905550808273ffffffffffffffffffffffffffffffffffffffff16610f9983610878565b73ffffffffffffffffffffffffffffffffffffffff167f8c5be1e5ebec7d5bd14f71427d1e84f3dd0314c0f7b2291e5b200ac8c7c3b92560405160405180910390a45050565b600080610feb83610878565b90508073ffffffffffffffffffffffffffffffffffffffff168473ffffffffffffffffffffffffffffffffffffffff16148061102d575061102c8185610d3a565b5b8061106b57508373ffffffffffffffffffffffffffffffffffffffff1661105384610643565b73ffffffffffffffffffffffffffffffffffffffff16145b91505092915050565b8273ffffffffffffffffffffffffffffffffffffffff1661109482610878565b73ffffffffffffffffffffffffffffffffffffffff16146110ea576040517f08c379a00000000000000000000000000000000000000000000000000000000081526004016110e1906129e7565b60405180910390fd5b600073ffffffffffffffffffffffffffffffffffffffff168273ffffffffffffffffffffffffffffffffffffffff1603611159576040517f08c379a000000000000000000000000000000000000000000000000000000000815260040161115090612a79565b60405180910390fd5b61116683838360016117fa565b8273ffffffffffffffffffffffffffffffffffffffff1661118682610878565b73ffffffffffffffffffffffffffffffffffffffff16146111dc576040517f08c379a00000000000000000000000000000000000000000000000000000000081526004016111d3906129e7565b60405180910390fd5b6004600082815260200190815260200160002060006101000a81549073ffffffffffffffffffffffffffffffffffffffff02191690556001600360008573ffffffffffffffffffffffffffffffffffffffff1673ffffffffffffffffffffffffffffffffffffffff168152602001908152602001600020600082825403925050819055506001600360008473ffffffffffffffffffffffffffffffffffffffff1673ffffffffffffffffffffffffffffffffffffffff16815260200190815260200160002060008282540192505081905550816002600083815260200190815260200160002060006101000a81548173ffffffffffffffffffffffffffffffffffffffff021916908373ffffffffffffffffffffffffffffffffffffffff160217905550808273ffffffffffffffffffffffffffffffffffffffff168473ffffffffffffffffffffffffffffffffffffffff167fddf252ad1be2c89b69c2b068fc378daa952ba7f163c4a11628f55a4df523b3ef60405160405180910390a46113688383836001611920565b505050565b611375610f1e565b73ffffffffffffffffffffffffffffffffffffffff16611393610b9e565b73ffffffffffffffffffffffffffffffffffffffff16146113e9576040517f08c379a00000000000000000000000000000000000000000000000000000000081526004016113e090612ae5565b60405180910390fd5b565b60006002600083815260200190815260200160002060009054906101000a900473ffffffffffffffffffffffffffffffffffffffff169050919050565b6000600660009054906101000a900473ffffffffffffffffffffffffffffffffffffffff16905081600660006101000a81548173ffffffffffffffffffffffffffffffffffffffff021916908373ffffffffffffffffffffffffffffffffffffffff1602179055508173ffffffffffffffffffffffffffffffffffffffff168173ffffffffffffffffffffffffffffffffffffffff167f8be0079c531659141344cd1fd0a4f28419497f9722a3daafe3b4186f6b6457e060405160405180910390a35050565b611508828260405180602001604052806000815250611926565b5050565b8173ffffffffffffffffffffffffffffffffffffffff168373ffffffffffffffffffffffffffffffffffffffff160361157a576040517f08c379a000000000000000000000000000000000000000000000000000000000815260040161157190612b51565b60405180910390fd5b80600560008573ffffffffffffffffffffffffffffffffffffffff1673ffffffffffffffffffffffffffffffffffffffff16815260200190815260200160002060008473ffffffffffffffffffffffffffffffffffffffff1673ffffffffffffffffffffffffffffffffffffffff16815260200190815260200160002060006101000a81548160ff0219169083151502179055508173ffffffffffffffffffffffffffffffffffffffff168373ffffffffffffffffffffffffffffffffffffffff167f17307eab39ab6107e8899845ad3d59bd9653f200f220920489ca2b5937696c318360405161166b9190611f4f565b60405180910390a3505050565b611683848484611074565b61168f84848484611981565b6116ce576040517f08c379a00000000000000000000000000000000000000000000000000000000081526004016116c590612be3565b60405180910390fd5b50505050565b606060405180602001604052806000815250905090565b6060600060016116fa84611b08565b01905060008167ffffffffffffffff8111156117195761171861229e565b5b6040519080825280601f01601f19166020018201604052801561174b5781602001600182028036833780820191505090505b509050600082602001820190505b6001156117ae578080600190039150507f3031323334353637383961626364656600000000000000000000000000000000600a86061a8153600a85816117a2576117a1612c03565b5b04945060008503611759575b819350505050919050565b60008073ffffffffffffffffffffffffffffffffffffffff166117db836113eb565b73ffffffffffffffffffffffffffffffffffffffff1614159050919050565b600181111561191a57600073ffffffffffffffffffffffffffffffffffffffff168473ffffffffffffffffffffffffffffffffffffffff161461188e5780600360008673ffffffffffffffffffffffffffffffffffffffff1673ffffffffffffffffffffffffffffffffffffffff16815260200190815260200160002060008282546118869190612c32565b925050819055505b600073ffffffffffffffffffffffffffffffffffffffff168373ffffffffffffffffffffffffffffffffffffffff16146119195780600360008573ffffffffffffffffffffffffffffffffffffffff1673ffffffffffffffffffffffffffffffffffffffff16815260200190815260200160002060008282546119119190612c66565b925050819055505b5b50505050565b50505050565b6119308383611c5b565b61193d6000848484611981565b61197c576040517f08c379a000000000000000000000000000000000000000000000000000000000815260040161197390612be3565b60405180910390fd5b505050565b60006119a28473ffffffffffffffffffffffffffffffffffffffff16611e78565b15611afb578373ffffffffffffffffffffffffffffffffffffffff1663150b7a026119cb610f1e565b8786866040518563ffffffff1660e01b81526004016119ed9493929190612cef565b6020604051808303816000875af1925050508015611a2957506040513d601f19601f82011682018060405250810190611a269190612d50565b60015b611aab573d8060008114611a59576040519150601f19603f3d011682016040523d82523d6000602084013e611a5e565b606091505b506000815103611aa3576040517f08c379a0000000000000000000000000000000000000000000000000000000008152600401611a9a90612be3565b60405180910390fd5b805181602001fd5b63150b7a0260e01b7bffffffffffffffffffffffffffffffffffffffffffffffffffffffff1916817bffffffffffffffffffffffffffffffffffffffffffffffffffffffff191614915050611b00565b600190505b949350505050565b600080600090507a184f03e93ff9f4daa797ed6e38ed64bf6a1f0100000000000000008310611b66577a184f03e93ff9f4daa797ed6e38ed64bf6a1f0100000000000000008381611b5c57611b5b612c03565b5b0492506040810190505b6d04ee2d6d415b85acef81000000008310611ba3576d04ee2d6d415b85acef81000000008381611b9957611b98612c03565b5b0492506020810190505b662386f26fc100008310611bd257662386f26fc100008381611bc857611bc7612c03565b5b0492506010810190505b6305f5e1008310611bfb576305f5e1008381611bf157611bf0612c03565b5b0492506008810190505b6127108310611c20576127108381611c1657611c15612c03565b5b0492506004810190505b60648310611c435760648381611c3957611c38612c03565b5b0492506002810190505b600a8310611c52576001810190505b80915050919050565b600073ffffffffffffffffffffffffffffffffffffffff168273ffffffffffffffffffffffffffffffffffffffff1603611cca576040517f08c379a0000000000000000000000000000000000000000000000000000000008152600401611cc190612dc9565b60405180910390fd5b611cd3816117b9565b15611d13576040517f08c379a0000000000000000000000000000000000000000000000000000000008152600401611d0a90612e35565b60405180910390fd5b611d216000838360016117fa565b611d2a816117b9565b15611d6a576040517f08c379a0000000000000000000000000000000000000000000000000000000008152600401611d6190612e35565b60405180910390fd5b6001600360008473ffffffffffffffffffffffffffffffffffffffff1673ffffffffffffffffffffffffffffffffffffffff16815260200190815260200160002060008282540192505081905550816002600083815260200190815260200160002060006101000a81548173ffffffffffffffffffffffffffffffffffffffff021916908373ffffffffffffffffffffffffffffffffffffffff160217905550808273ffffffffffffffffffffffffffffffffffffffff16600073ffffffffffffffffffffffffffffffffffffffff167fddf252ad1be2c89b69c2b068fc378daa952ba7f163c4a11628f55a4df523b3ef60405160405180910390a4611e74600083836001611920565b5050565b6000808273ffffffffffffffffffffffffffffffffffffffff163b119050919050565b6000604051905090565b600080fd5b600080fd5b60007fffffffff0000000000000000000000000000000000000000000000000000000082169050919050565b611ee481611eaf565b8114611eef57600080fd5b50565b600081359050611f0181611edb565b92915050565b600060208284031215611f1d57611f1c611ea5565b5b6000611f2b84828501611ef2565b91505092915050565b60008115159050919050565b611f4981611f34565b82525050565b6000602082019050611f646000830184611f40565b92915050565b600081519050919050565b600082825260208201905092915050565b60005b83811015611fa4578082015181840152602081019050611f89565b60008484015250505050565b6000601f19601f8301169050919050565b6000611fcc82611f6a565b611fd68185611f75565b9350611fe6818560208601611f86565b611fef81611fb0565b840191505092915050565b600060208201905081810360008301526120148184611fc1565b905092915050565b6000819050919050565b61202f8161201c565b811461203a57600080fd5b50565b60008135905061204c81612026565b92915050565b60006020828403121561206857612067611ea5565b5b60006120768482850161203d565b91505092915050565b600073ffffffffffffffffffffffffffffffffffffffff82169050919050565b60006120aa8261207f565b9050919050565b6120ba8161209f565b82525050565b60006020820190506120d560008301846120b1565b92915050565b6120e48161209f565b81146120ef57600080fd5b50565b600081359050612101816120db565b92915050565b6000806040838503121561211e5761211d611ea5565b5b600061212c858286016120f2565b925050602061213d8582860161203d565b9150509250929050565b6000806000606084860312156121605761215f611ea5565b5b600061216e868287016120f2565b935050602061217f868287016120f2565b92505060406121908682870161203d565b9150509250925092565b6000602082840312156121b0576121af611ea5565b5b60006121be848285016120f2565b91505092915050565b6121d08161201c565b82525050565b60006020820190506121eb60008301846121c7565b92915050565b600060608201905061220660008301866120b1565b61221360208301856121c7565b61222060408301846121c7565b949350505050565b61223181611f34565b811461223c57600080fd5b50565b60008135905061224e81612228565b92915050565b6000806040838503121561226b5761226a611ea5565b5b6000612279858286016120f2565b925050602061228a8582860161223f565b9150509250929050565b600080fd5b600080fd5b7f4e487b7100000000000000000000000000000000000000000000000000000000600052604160045260246000fd5b6122d682611fb0565b810181811067ffffffffffffffff821117156122f5576122f461229e565b5b80604052505050565b6000612308611e9b565b905061231482826122cd565b919050565b600067ffffffffffffffff8211156123345761233361229e565b5b61233d82611fb0565b9050602081019050919050565b82818337600083830152505050565b600061236c61236784612319565b6122fe565b90508281526020810184848401111561238857612387612299565b5b61239384828561234a565b509392505050565b600082601f8301126123b0576123af612294565b5b81356123c0848260208601612359565b91505092915050565b600080600080608085870312156123e3576123e2611ea5565b5b60006123f1878288016120f2565b9450506020612402878288016120f2565b93505060406124138782880161203d565b925050606085013567ffffffffffffffff81111561243457612433611eaa565b5b6124408782880161239b565b91505092959194509250565b6000806040838503121561246357612462611ea5565b5b6000612471858286016120f2565b9250506020612482858286016120f2565b9150509250929050565b7f4e487b7100000000000000000000000000000000000000000000000000000000600052602260045260246000fd5b600060028204905060018216806124d357607f821691505b6020821081036124e6576124e561248c565b5b50919050565b7f4552433732313a20617070726f76616c20746f2063757272656e74206f776e6560008201527f7200000000000000000000000000000000000000000000000000000000000000602082015250565b6000612548602183611f75565b9150612553826124ec565b604082019050919050565b600060208201905081810360008301526125778161253b565b9050919050565b7f4552433732313a20617070726f76652063616c6c6572206973206e6f7420746f60008201527f6b656e206f776e6572206f7220617070726f76656420666f7220616c6c000000602082015250565b60006125da603d83611f75565b91506125e58261257e565b604082019050919050565b60006020820190508181036000830152612609816125cd565b9050919050565b7f4552433732313a2063616c6c6572206973206e6f7420746f6b656e206f776e6560008201527f72206f7220617070726f76656400000000000000000000000000000000000000602082015250565b600061266c602d83611f75565b915061267782612610565b604082019050919050565b6000602082019050818103600083015261269b8161265f565b9050919050565b7f4552433732313a20696e76616c696420746f6b656e2049440000000000000000600082015250565b60006126d8601883611f75565b91506126e3826126a2565b602082019050919050565b60006020820190508181036000830152612707816126cb565b9050919050565b7f4552433732313a2061646472657373207a65726f206973206e6f74206120766160008201527f6c6964206f776e65720000000000000000000000000000000000000000000000602082015250565b600061276a602983611f75565b91506127758261270e565b604082019050919050565b600060208201905081810360008301526127998161275d565b9050919050565b7f496e73756666696369656e742066756e647320746f206d696e74204e46540000600082015250565b60006127d6601e83611f75565b91506127e1826127a0565b602082019050919050565b60006020820190508181036000830152612805816127c9565b9050919050565b7f4e487b7100000000000000000000000000000000000000000000000000000000600052601160045260246000fd5b60006128468261201c565b91507fffffffffffffffffffffffffffffffffffffffffffffffffffffffffffffffff82036128785761287761280c565b5b600182019050919050565b600081905092915050565b600061289982611f6a565b6128a38185612883565b93506128b3818560208601611f86565b80840191505092915050565b60006128cb828561288e565b91506128d7828461288e565b91508190509392505050565b7f4f776e61626c653a206e6577206f776e657220697320746865207a65726f206160008201527f6464726573730000000000000000000000000000000000000000000000000000602082015250565b600061293f602683611f75565b915061294a826128e3565b604082019050919050565b6000602082019050818103600083015261296e81612932565b9050919050565b7f4552433732313a207472616e736665722066726f6d20696e636f72726563742060008201527f6f776e6572000000000000000000000000000000000000000000000000000000602082015250565b60006129d1602583611f75565b91506129dc82612975565b604082019050919050565b60006020820190508181036000830152612a00816129c4565b9050919050565b7f4552433732313a207472616e7366657220746f20746865207a65726f2061646460008201527f7265737300000000000000000000000000000000000000000000000000000000602082015250565b6000612a63602483611f75565b9150612a6e82612a07565b604082019050919050565b60006020820190508181036000830152612a9281612a56565b9050919050565b7f4f776e61626c653a2063616c6c6572206973206e6f7420746865206f776e6572600082015250565b6000612acf602083611f75565b9150612ada82612a99565b602082019050919050565b60006020820190508181036000830152612afe81612ac2565b9050919050565b7f4552433732313a20617070726f766520746f2063616c6c657200000000000000600082015250565b6000612b3b601983611f75565b9150612b4682612b05565b602082019050919050565b60006020820190508181036000830152612b6a81612b2e565b9050919050565b7f4552433732313a207472616e7366657220746f206e6f6e20455243373231526560008201527f63656976657220696d706c656d656e7465720000000000000000000000000000602082015250565b6000612bcd603283611f75565b9150612bd882612b71565b604082019050919050565b60006020820190508181036000830152612bfc81612bc0565b9050919050565b7f4e487b7100000000000000000000000000000000000000000000000000000000600052601260045260246000fd5b6000612c3d8261201c565b9150612c488361201c565b9250828203905081811115612c6057612c5f61280c565b5b92915050565b6000612c718261201c565b9150612c7c8361201c565b9250828201905080821115612c9457612c9361280c565b5b92915050565b600081519050919050565b600082825260208201905092915050565b6000612cc182612c9a565b612ccb8185612ca5565b9350612cdb818560208601611f86565b612ce481611fb0565b840191505092915050565b6000608082019050612d0460008301876120b1565b612d1160208301866120b1565b612d1e60408301856121c7565b8181036060830152612d308184612cb6565b905095945050505050565b600081519050612d4a81611edb565b92915050565b600060208284031215612d6657612d65611ea5565b5b6000612d7484828501612d3b565b91505092915050565b7f4552433732313a206d696e7420746f20746865207a65726f2061646472657373600082015250565b6000612db3602083611f75565b9150612dbe82612d7d565b602082019050919050565b60006020820190508181036000830152612de281612da6565b9050919050565b7f4552433732313a20746f6b656e20616c7265616479206d696e74656400000000600082015250565b6000612e1f601c83611f75565b9150612e2a82612de9565b602082019050919050565b60006020820190508181036000830152612e4e81612e12565b905091905056fea2646970667358221220041d451a8789624381bf159ff700cd0837e10bcc2795d055d524bda4fcd3e6c164736f6c63430008130033a26469706673582212205d5f0ecd5380cffef70773ad78d21e520a24df296050d5af0f7428b1fd85855464736f6c63430008130033",
  "linkReferences": {},
  "deployedLinkReferences": {}
}